:100000000C94B5020C94D2020C94D2020C940425E8
:100010000C94D2020C94D2020C94D2020C94D20210
:100020000C94D2020C94D2020C94292A0C94FD2A2E
:100030000C9427220C94D2020C94D2020C94D2027B
:100040000C94D2020C94D2020C94D2020C94D202E0
:100050000C94D2020C94CA220C94D2020C94D202B8
:100060000C94D2020C94D2020C94D2020C94D202C0
:100070000C94D2020C94D2020C94D2020C94D202B0
:100080000C94D2020C94D2020C94D2020C94D202A0
:100090000C94D2020C94D2020C94D2020C94D20290
:1000A0000C94D2020C94D2020C94D20229001E00AD
:1000B0001F002000210022002B0014001A0008005D
:1000C00015001700E10004001600070009000A00EF
:1000D000E0001D001B000600190005000000E20002
:1000E0004C00417E2C003000447E27002600250075
:1000F000240023002D00130012000C0018001C0027
:10010000340033000F000E000D000B002F023800EA
:1001100037003600100011000000E7002A00427E80
:10012000280032000100010001000100010001006F
:100130003A003B003C003D003E003F001E021F0213
:1001400020022102220223020100010001002E02EE
:100150002E002F000000010001000100010001003D
:100160000100010001000100010001004500440000
:100170004300420041004000890287002D02260210
:1001800025022402870238022D003302370236028C
:100190000000010001000100010001000100010058
:1001A0000100010001000100010001002400250000
:1001B00026000100010001002100220023000100AF
:1001C000010001001E001F002000270000000100A8
:1001D0000100010001000100010001000100010017
:1001E0000100010001000100010001000100010007
:1001F000000000004F0052005100500000000000BD
:100200004D004B004E004A000000010001000100BB
:1002100001000100000000000000000000000000DC
:1002200000000000000000000000000000000000CE
:1002300000000000000000000000000000000000BE
:1002400000000000000001000100010001000000AA
:10025000000000000000000000000000000000009E
:10026000000000000000000027782578237820781F
:10027000000000002878267824782178000000000B
:100280000000010001000100010000001E0F050038
:10029000047F3F1F643214643214783C1E1E140A1B
:1002A000052223252628292A2C2D2F3032333536B6
:1002B000383A3B3D3E4042434547494A4C4E5051F7
:1002C000535557595A5C5E6062646668696B6D6F1E
:1002D00071737577797B7D7F81838587898A8C8E21
:1002E00090929496989A9C9E9FA1A3A5A7A8AAAC29
:1002F000AEAFB1B3B4B6B8B9BBBCBEBFC1C2C3C563
:10030000C6C7C9CACBCCCDCED0D1D2D2D3D4D5D604
:10031000D7D7D8D9D9DADADBDBDBDCDCDCDCDCDD37
:10032000DDDDDDDCDCDCDCDCDBDBDBDADAD9D9D81B
:10033000D7D7D6D5D4D3D2D2D1D0CECDCCCBCAC9B3
:10034000C7C6C5C3C2C1BFBEBCBBB9B8B6B4B3B1E2
:10035000AFAEACAAA8A7A5A3A19F9E9C9A9896947D
:1003600092908E8C8A89878583817F7D7B79777552
:1003700073716F6D6B6968666462605E5C5A595731
:10038000555351504E4C4A4947454342403E3D3BF0
:100390003A3836353332302F2D2C2A29282625237A
:1003A00022FFAA7F55400001010101010101010165
:1003B0000202020202020202020303030303030316
:1003C00003040404040404040505050505060606E3
:1003D0000606070707070708080808090909090AA0
:1003E0000A0A0B0B0B0C0C0C0D0D0D0E0E0E0F0F45
:1003F0000F101011111112121313141415151616D3
:100400001717181819191A1A1B1B1C1D1D1E1E1F41
:100410002020212222232424252626272829292A90
:100420002B2C2D2D2E2F30313232333435363738B8
:10043000393A3B3C3D3E3F404142434445464748B4
:10044000494A4C4D4E4F50515354555658595A5B8A
:100450005D5E5F616264656668696B6C6D6F70722A
:10046000737577787A7B7D7E8082838587888A8C96
:100470008E8F91939596989A9C9EA0A2A3A5A7A9CA
:10048000ABADAFB1B3B5B7BABCBEC0C2C4C6C9CBC1
:10049000CDCFD1D4D6D8DBDDDFE2E4E7E9EBEEF077
:1004A000F3F5F8FAFDFF00AE00AF00DA0281FFD9E4
:1004B000F1DB20A4A62EAF00A0C0D30000A1C8D3BA
:1004C0000000AED580A81F408D1420000E034C0004
:1004D00069006C00790035003800000010036C00E2
:1004E00069006C00690075006D0073000000040372
:1004F000090409022200010100A0FA090400000118
:1005000003010100092111010001224400070581B6
:10051000030800011201000200000008D8042DEBBE
:1005200000010102000105010906A101050719E00A
:1005300029E71500250195087501810295017508C7
:1005400081010507190029FF150026FF0095067592
:100550000881000508190129051500250195057573
:10056000019102950175039101C011241FBECFEFC7
:10057000DAE0DEBFCDBF11E0A0E0B1E0E0E0FEE5F3
:1005800002C005900D92A039B107D9F725E0A0E986
:10059000B1E001C01D92A83BB207E1F70E94981498
:1005A0000C94B42E0C940000CF93DF93D62FC42F5D
:1005B0000E940608882359F08D2F0E940608882380
:1005C00031F08C2F0E941A08DF91CF9108958C2F63
:1005D0000E942A08F9CF809146038695869590E07F
:1005E000909329038093280308958093920181E0DA
:1005F0000895CF93FB01C5818234FEE79F07A9F1DF
:1006000058F48034EEE79E07F1F081349E4711F1F3
:10061000C1E08C2FCF91089583342EE7920779F1B2
:1006200084349E47A9F7CC23A1F3809192018330B3
:1006300079F580EE0E94EF048CE20E94460580EE80
:100640000E94150505C0CC2321F380E00E94D6034B
:10065000C0E0DFCF81E0CC2351F00E941A0843E0D4
:1006600062E081E00E94D402F3CF82E0F4CF0E94E6
:100670002A0843E062E081E00E94D402CACF83E00E
:10068000CC2319F00E941A08E3CF0E942A08C1CF98
:1006900085E30E944605DCCF8430B8F46A30A8F4C4
:1006A000463098F450E096E0699F400D511D1124AA
:1006B000FA019CE3899FE00DF11D1124EE0FFF1F4D
:1006C000E455FF4F85919491089581E090E008955D
:1006D0000E944C03089581E008950E946B030895E1
:1006E00081E008950E94F902089508950E9475031B
:1006F0000895A6E0B0E0EFE7F3E00C94602D4983A5
:100700005A839E833091980189819A8131111AC050
:100710003E81332399F0222389F00E94E008182FAC
:10072000682F89819A810E94BC0869817A81812F12
:100730000E94970F2696E3E00C947C2D0E94CE0831
:10074000182FF3CF0E94E00869817A81F1CFFC0174
:10075000262F4081518162817381848195810E941D
:1007600079030895CF93DF93EC0161E00E94A70322
:10077000BE010E946D03DF91CF910895CF93DF9367
:10078000EC0160E00E94A703BE010E947603DF91A6
:10079000CF91089521E030E0A90102C0440F551F18
:1007A0008A95E2F7CA010E94C2070895CF93C82F25
:1007B00081E090E00C2E02C0880F991F0A94E2F7A6
:1007C0000E940A0D8C2F0E94CA03CF91089581E0E8
:1007D00008950E94E7030895CF93C82F0E947507DC
:1007E0008C2F0E94E9032FEF84E39CE0215080408E
:1007F0009040E1F700C00000CF91089581E00E9491
:10080000EC030E94EE22089580E00E94EC030E9417
:10081000FF2208950F931F93CF93DF938C0161E024
:100820000E94A703EC01F801858181110E94271C19
:10083000B801CE010E947203811106C080E0DF91F1
:10084000CF911F910F910895B801CE010E94B2205F
:100850008823A1F3B801CE010E94C91E882371F339
:10086000B801CE010E949F1E882341F3B801CE013A
:100870000E94B214882311F3B801CE010E94E61041
:100880008823E1F2F8018581882361F0C330FCE719
:10089000DF07E9F058F4C115ECE7DE07A9F0C13035
:1008A000DC47B9F0C8010E947003C9CFCB358CE793
:1008B000D807A9F0CC35ECE7DE0771F0CA35DC4784
:1008C00089F70E94E50CEECF0E94FE03B7CF0E948D
:1008D000ED0C0E940404B2CF0E94DB0CE3CF0E9417
:1008E000E90CE0CF0E9404220E9494040E94F01DB3
:1008F00008950E9498040E940922089581E00895B5
:100900000895CF93DF93D82F0E947E04C82F8823A9
:1009100019F08D2F0E9480048C2FDF91CF910895C4
:1009200008950E948104089580E00E949104089532
:100930000E94FB200E9491040895CF930E94FB2007
:10094000C82F809193018C1779F0C09393010E9476
:1009500093226093940170939501809396019093F4
:1009600097018C2F0E949104CF910895ADE0B0E0E3
:10097000ECEBF4E00C94612D488759876A877B87FC
:100980008C879D8791110E941B0C1F8286E0FE01BF
:100990003896DE01119601900D928A95E1F78D81CE
:1009A00081110DC029813A814B815C816D817E81ED
:1009B0008F810E94650B2D96E2E00C947D2DCE0177
:1009C00001960E94B2038111EDCFF5CFFC01248185
:1009D000213021F4808191810E9412090895CF93E2
:1009E000C82F882399F08CEF8C0F813A88F48C2FD4
:1009F0000E942F21882329F08C2F0E9472210E94AF
:100A00008A0C8C2F0E946A210E948A0CCF91089533
:100A100080E28C0F8830D0F7C77081E001C0880F6A
:100A2000CA95EAF70E94FE0BEFCF882341F09CEFB6
:100A3000980F913A28F40E9472210E948A0C08951E
:100A400090E2980F9830D8F7877091E001C0990F25
:100A50008A95EAF7892F0E94040CEFCF1F93CF935A
:100A6000DF93182FEB010E94EF04209739F4812FB8
:100A70000E941505DF91CF911F9108958FE99FE0A6
:100A80000197F1F700C000002197EFCF70E060E020
:100A9000893311F460E570E00E942E0508958823E3
:100AA00021F00E94FE0B0E948A0C0895882321F0F9
:100AB0000E94040C0E948A0C0895B0E0A0E0E3E6D6
:100AC000F5E00C945A2D6C01D62FC72FFC0115812F
:100AD000068102950F700E94F40BE82E8823F9F02E
:100AE000E12E1123E1F08C2F807F803461F080E2D1
:100AF0008D0F883008F18C2F807E803221F4D23027
:100B0000D8F00023C9F080912B0382FF15C082E04A
:100B10000E94AF0C0E94F40B91E0E82EE926BC2E57
:100B2000B2949FE0B922FBE0FB15B8F1EB2DF0E0A9
:100B3000EA54F14D0C941A2DE12CF1CF0C2F0F70CB
:100B4000C07F11F00295007F112399F0002359F026
:100B500080E28D0F883010F0D11107C0802F0E94E5
:100B6000FE0B0E948A0C8D2F5AC0802F0E940E0C03
:100B7000F8CF8D2F0E941505002379F080E28D0FAC
:100B8000883010F0D11104C0802F0E94040C03C0E3
:100B9000802F0E94140C0E948A0CEB2DE850FF0B52
:100BA000349720F40E94FB200E949104EE2089F0EB
:100BB0000E94F00B80FD0DC0F60115820E94EA0B29
:100BC0000E941A08C6010E9448070E94EA0B0E9470
:100BD0002A08CDB7DEB7E9E00C94762D2C2F2F70C4
:100BE000F22EC07FC03219F0F29480EFF822DD239C
:100BF00041F0D130D1F1112309F444C00023F1F0C8
:100C0000B2CF80912B0382FD15C0112359F0FF2034
:100C100029F08F2D0E94FE0B0E948A0C80E00E941A
:100C2000EF04BBCF80E00E941505FF2009F4B5CF8B
:100C30008F2DABCF112369F0011104C08F2D0E94BD
:100C40004F05ABCF013009F0A8CF8F2D0E94320C99
:100C5000A4CF0111A2CF8F2D0E9456058F2D0E9487
:100C60003E0C8F2D0E94220C98CF112321F00630CC
:100C700008F093CFE3CF053008F08FCF8F2D0E947F
:100C800056058BCF0023D1F3D93349F43FEF87EEDC
:100C900093E0315080409040E1F700C000008D2F7C
:100CA0000E9415057ACF8C2F8370A1F5111175CF95
:100CB0004D2F429546954770440F440F2D2F2F70AE
:100CC00030E0042E02C0220F331F0A94E2F790E0B6
:100CD00080E0D4FF09C08FE090E002C0880F991F28
:100CE0004A95E2F780959095C695C695C370822B7C
:100CF000932BC23049F058F4C13019F00E94CE074E
:100D00004CCF0E94C50749CF0E94D70746CF0E940B
:100D1000C20743CF8695112311F08C2F8170882351
:100D200009F43BCF4D2F429546954770440F440F31
:100D30002D2F2F7030E0042E02C0220F331F0A9493
:100D4000E2F790E080E0D4FF09C08FE090E002C0BD
:100D5000880F991F4A95E2F780959095C695C6959C
:100D6000C370822B932BC23049F058F4C13019F074
:100D70000E94550812CF0E944C080FCF0E945E08B7
:100D80000CCF0E94E60709CFCF70112329F08C2FDA
:100D90000E941A088D2F53CF8D2F0E9456058C2F3D
:100DA0000E942A08FACED23F41F160F4D03FB9F058
:100DB000D13F81F0112309F443C00111D4CE8C2F0F
:100DC0008F711FC0D33F01F1D43FA1F780912B0356
:100DD00082FD24C08C2F8F71112311F312C01123B7
:100DE00041F0053008F0D9CE8C2F8F710E943C085D
:100DF000D4CE063008F0D1CEF7CF8C2F8F711111E1
:100E0000CFCF0E941A08C9CE112329F08C2F8F71E1
:100E10000E940E08C2CE0E94ED07BFCE112331F012
:100E200063E08C2F8F710E94910CB7CE81E00E94FD
:100E3000AF0C023008F4B1CE82E00E94AF0CADCE10
:100E4000002359F0D93309F02ACFEFEFF7EE23E072
:100E5000E150F0402040E1F720CF8C2F8F71A0CFE0
:100E60000F931F93CF93DF93EC01688179818D817C
:100E70000E941D098C010E9467080E94C107B801E9
:100E8000CE010E945D05DF91CF911F910F910895D2
:100E9000CF93DF93EC018C81882399F0CE010E94DF
:100EA0000A04811111C00E94F40B882351F08D8136
:100EB000882339F080912B0382FF03C082E00E94D7
:100EC000AF0CDF91CF910895CE010E943007CE0183
:100ED0000E94BE03F6CF0E941B0C0E948A0C08954C
:100EE0000E947A210E946B0708950E940B0C0E94B9
:100EF0007007089592959F70963091F058F4925F24
:100F00009F70923058F4803F19F030F4883E30F4EE
:100F100081E008959A5FF4CF843FD1F380E0089593
:100F2000883EB0F3813FD1F7F3CFFC012481222327
:100F300039F0808191810E9412090E947A070895F8
:100F400080E00895A6E0B0E0E8EAF7E00C94612DB7
:100F50002696E2E00C947D2DA7E0B0E0E2EBF7E00E
:100F60000C94612D2796E2E00C947D2D08950E944B
:100F7000B60708950E94B7079093BC018093BB0108
:100F8000089508950E94BA0708952091BB013091F9
:100F9000BC01822B932B0E94BA0708952091BB01BC
:100FA0003091BC01822393230E94BA0708952091B7
:100FB000BB013091BC01822793270E94BA07089594
:100FC0000E94B60708950E94E00708950E94E30773
:100FD0009093BA018093B901089590E080E00E9457
:100FE000E6070895009729F481E0662371F080E018
:100FF0000CC021E030E002C0220F331F6A95E2F7F7
:101000002823392381E0232B91F30895682F8091C1
:10101000B9019091BA010E94F207089521E030E0F1
:10102000A90102C0440F551F8A95E2F7CA010E9428
:10103000E607089521E030E002C0220F331F8A95B1
:10104000E2F78091B9019091BA01822B932B0E9413
:10105000E607089521E030E002C0220F331F8A9591
:10106000E2F7209530958091B9019091BA018223E1
:1010700093230E94E607089521E030E002C0220F8A
:10108000331F8A95E2F78091B9019091BA018227C6
:1010900093270E94E60708952091B9013091BA0183
:1010A000822B932B0E94E60708952091B90130917D
:1010B000BA01822393230E94E60708952091B90183
:1010C0003091BA01822793270E94E6070895089578
:1010D000262F277091E001C0990F2A95EAF723E0A7
:1010E000769567952A95E1F7660F771F660F771F4C
:1010F000FA01E60FF71F50E040E0682F70E08191A1
:10110000DF0111979B01042E02C0369527950A94A2
:10111000E2F7217021952827292328272C934F5F58
:101120005F4F4430510559F70895A82FA77023E069
:10113000969587952A95E1F7880F991F880F991F33
:10114000FB01E80FF91F50E040E080E0219130E022
:101150000A2E02C0369527950A94E2F721703327AC
:10116000042E01C0220F0A94EAF7822B4F5F5F4FD3
:101170004430510559F70895262F9A3070F486307F
:1011800060F4682F70E086E0989F600D711D112457
:1011900049E951E0822F0E9468080895292F9A306A
:1011A00068F4863058F490E069E971E036E0239FF6
:1011B000800D911D11240E949508089580E00895E6
:1011C000B0E0A0E0E6EEF8E00C945A2D7C0100912E
:1011D000B9011091BA018091BB019091BC01082B1B
:1011E000192BCFE0D0E0CC24C394D12CBC2EC60167
:1011F0000C2E02C0880F991F0A94E2F780239123D6
:10120000892B49F4219790F7B12C8B2DCDB7DEB700
:10121000E9E00C94762DB7018C2F0E94A30F019763
:1012200089F3F3CFCF93DF93EC010E94E008BE0176
:101230000E94A30FDF91CF9108951F93CF93DF9367
:10124000EB0190919801992339F0CB010E9412098A
:10125000DF91CF911F910895882369F0CB010E94FF
:10126000E008182F682FCE010E94BC08BE01812F14
:101270000E94A30FEDCFCB010E94CE08182FF6CF0E
:101280001F93CF93DF93C091BD0117E08091BE0102
:101290008C1304C0DF91CF911F910895D0E01C9F63
:1012A000F0011D9FF00D1124E154FE4F208131818A
:1012B000428153816481758186810E94AC072196A9
:1012C000C770E4CF2091F7013091F8014091F90106
:1012D0005091FA016091FB017091FC018091FD0138
:1012E0000E94AC070895CF93DF938091FD01807F2A
:1012F00009F04DC08091FC01882309F448C0E091B9
:10130000BD015091BE01C091F801D091F7016091EB
:10131000F9017091FA0147E05E17C9F18E2F90E054
:10132000E49FF0011124E154FE4F2481222391F126
:10133000489FF001499FF00D1124DF01A154BE4FD9
:1013400011962C9111972C1325C02C912D1322C08E
:1013500015962C91159721111DC012962D913C9137
:10136000261B370B24363105A8F48091FD018F70C0
:1013700080618093FD01EB53FE4F80818F7080610F
:10138000808387EF91E00E9448070E944009DF9127
:10139000CF910895FC013196E770BECF482F209180
:1013A000BD019091BE0157E0291302C080E008956D
:1013B00030E0529FF001539FF00D1124E154FE4F95
:1013C0008181681306C08081481303C08581811123
:1013D000EECF2F5F3F4F2770E7CFA4E1B0E0E3EF00
:1013E000F9E00C94572D8C0186E0F801DE011F9680
:1013F00001900D928A95E1F7F8018481E58097EFDD
:10140000A92E91E0B92E9091FB0191111FC0882364
:10141000D1F0EE20A9F0C8010E949507F82E88238C
:1014200079F087E0F801D50101900D928A95E1F7F6
:10143000C5010E94E6040E9473090E9462095FC010
:10144000C8010E944807FF24F39459C0C080D1808E
:1014500082809380F090FC012091F9013091FA0193
:10146000A401421B530BFF2009F4F9C04436510577
:1014700008F0A7C0882309F442C09091F801809138
:10148000FD01282F207F09F05CC0D91216C0909171
:10149000F701C91212C0E1104EC08F7080618093B5
:1014A000FD010E94620987EF91E00E944807809148
:1014B000FD01F8018683F12C22C0E1103CC06D2DA6
:1014C0008C2D0E94CE096D2D8C2D0E94CE09E82E08
:1014D0008111F1CFCF86D88A8F8598890E94120911
:1014E000292F22952F70243078F49F702230A8F095
:1014F0009923B9F0F8019681907F99F4FE2C8F2DF5
:101500006496ECE00C94732D2A5F2F70223068F003
:10151000C8010E944807EF2CF1CF992311F08823CE
:1015200069F3805E883050F3F3CF803F38F3815FFA
:10153000833070F7E3CF8091FD0181608093FD01DE
:10154000BACFD91213C09091F701C9120FC0E110A0
:101550000DC08683C8010E94480787E0F801A7EF05
:10156000B1E001900D928A95E1F767CFC8010E9422
:101570009507882309F464CFEE2009F461CF8091A8
:10158000FD01803288F02091F7013091F801398710
:1015900028879B868A869091FB019C871D868E8773
:1015A000CE0108960E94480787E0F801A7EFB1E056
:1015B00001900D928A95E1F70E9473090E946209D9
:1015C00042CF9091FD01292F207FA1F4682D9A8AA6
:1015D000898AA6017A899E2D0E94A20787EF91E051
:1015E0000E94480787E0F50111928A95E9F70E9469
:1015F000620961CF882309F482CF8091F8018D11AF
:1016000010C08091F701C8120CC0E1100AC0968387
:10161000C8010E94480787E0F50111928A95E9F711
:101620006ECFC8010E949507882309F409CFEE20E8
:1016300009F406CF8091FD01803208F4B5CF2091E6
:10164000F7013091F8013A8329839C828B82909133
:10165000FB019D831E828F83CE010196A3CF44366A
:10166000510528F5882309F4EECEFE2CEE2009F46E
:10167000E7CE8091F8018D110CC08091F701C8125E
:1016800008C087E0A7EFB1E001900D928A95E1F7DD
:1016900036CFC8010E949507811186CF8091FD0148
:1016A00081608093FD01C8010E94480728CF682D02
:1016B0009A8A898AA6017A899E2D0E94A20787E0CC
:1016C000F50111928A95E9F7B8CEAEE0B0E0EBE60D
:1016D000FBE00C94602D288739874A875B876C87ED
:1016E0007D878E87CE0108960E94ED098823B1F090
:1016F0006C85662341F0288539854A855B857D8523
:101700008E850E94AC0717E08091BD019091BE01CB
:1017100089133DC02E96E3E00C947C2D87E0FE01FA
:101720003896DE01119601900D928A95E1F78C852D
:10173000882349F32091BE0130E0C90101968770EA
:1017400099274091BD014817190699F097E0929F9B
:10175000D001939FB00D1124A154BE4FFE013196CC
:1017600001900D929A95E1F78093BE010E94400985
:10177000CACF0E9475071092BE011092BD0187E08A
:10178000E7EFF1E0DF011D928A95E9F7BCCF819F79
:10179000C001112481549E4F0E94ED09882309F451
:1017A000B9CFE091BD011E9FF0011124E154FE4F1D
:1017B00020813181428153816481758186810E94BB
:1017C000AC078091BD0190E00196877099278093C6
:1017D000BD019ACF809106028695869586950895DB
:1017E000809106028770089590910602977081E0BB
:1017F00009F480E0089580911202089590911202F8
:10180000892B80931202089580959091120298235B
:10181000909312020895109212020895909111026D
:10182000892B80931102089580959091110298233D
:1018300090931102089510921102089508950E9444
:101840001E0C089590910702292F282331F08095CE
:101850008923809307020E941F0C089508950E9417
:101860002E0C089590910802292F2823281729F07B
:10187000982B909308020E942F0C089590910802D3
:10188000292F282331F080958923809308020E9414
:101890002F0C089580910802882329F010920802E5
:1018A00080E00E942F0C08950F931F93CF93DF9336
:1018B0000091040110910501C09112028091110262
:1018C000C82B80910802882331F0C82B0E941A216E
:1018D00081110E944A0CF801C083C0910401D0918B
:1018E000050148E050E06EEF71E0CE010E94272E26
:1018F000892B59F088E0FE01AEEFB1E001900D9226
:101900008A95E1F7CE010E940F21DF91CF911F91BF
:101910000F9108950E94540C089508950E948D0C13
:10192000089590912B0392FF11C098E0899F900138
:101930001124622B609306020E941A08809106020D
:101940008695869586950E948E0C08950E941A08A9
:1019500008951092060280E00E948E0C08959091E6
:1019600006028095892380930602282F277069F448
:10197000891759F090912B0392FF07C086958695A1
:1019800086950E942A080E94A90C089590912B0325
:1019900092FB222720F9281769F080FB92F9909397
:1019A0002B0380912A0390912B030E94150D82E056
:1019B0000E94AF0C089580912B0382FB882780F949
:1019C00091E089270E94C60C089581E00E94C60C10
:1019D000089580E00E94C60C08956FEF7FEF90E0BD
:1019E00080E00E947F2E089590E080E00E944B2EC0
:1019F00021E0853E9E4F09F020E0822F089582E08D
:101A000090E00E943D2E089583E090E00E943D2EDC
:101A100090E00895682F83E090E00E94612E089581
:101A200084E090E00E944B2E0895BC0184E090E099
:101A30000E947F2E0895AB01BC018FE090E00E94D0
:101A4000732E0895AB01BC0183E190E00E94732ED8
:101A5000089560E070E0CB010E94220D089560E0DF
:101A600070E0CB010E941B0D0E94290D0895A8E093
:101A7000B0E0EDE3FDE00C94612D65EE7EEF90E0CB
:101A800080E00E947F2E60E082E090E00E94612E64
:101A900081E090E09093BC018093BB010E940A0D0D
:101AA00060E074E184E090E00E947F2E60E086E0D8
:101AB00090E00E94612E60E087E090E00E94612E3D
:101AC00040E050E0BA0188E090E00E94732E60E0B0
:101AD00083E290E00E94612E60E08CE090E00E9442
:101AE000612E60E08DE090E00E94612E19821A82E2
:101AF0001B821C821D821E821F82188648E050E0D5
:101B000067E170E0CE0101960E94512E40E050E066
:101B1000BA018FE190E00E94732E0E942F0D28964B
:101B2000E2E00C947D2D0E94370D0895682F8EE021
:101B300090E00E94612E0895A6E0B0E0E2EAFDE0A8
:101B40000C945F2D0E9487228C018091130290914A
:101B500014028017910781F019821A820E9487224D
:101B6000682F49815A81792F80E090E00E94B60465
:101B700010931402009313022696E4E00C947B2D3C
:101B80000E94BF1060932302709324028093250269
:101B90009093260260931F0270932002809321028B
:101BA000909322020895089508950E94D30D0895F8
:101BB00008950E94D80D089581E0089584EE90E183
:101BC0000E94AD140E94D40D0E94D50D08950E946C
:101BD000AC120895089508950E94EA0D0E94EB0D3D
:101BE00008950E94F40C811102C00E94930D0E947E
:101BF000FF0C809327020E94100D90932B0380937B
:101C00002A030E94040D0E94C2078091B90190919D
:101C1000BA010E94E30708950E947E220E94991053
:101C20000E94B2120E9403120E94F10D0E949004C1
:101C30000E94871E80E00E94731C0E94471B0E9426
:101C4000C4120E94D90D0895A6E0B0E0EAE2FEE0D9
:101C50000C94572D0E94DC0DC82E811114C00E94D7
:101C60009C0DC12C0E94AC120E94281C0E94101EC8
:101C7000C1100E94D61C0E949D040E94A51F26969A
:101C8000ECE00C94732D0E94261285E1A82E82E0D0
:101C9000B82E750110E0F70101917F01812F0E949C
:101CA000FF101F5F1A3009F441C00817A1F380919B
:101CB000270281FD0E9405110E94E70D982E10E079
:101CC00088248394812F0E94FF10082FF5018191B1
:101CD0005F01081729F1F12CEE24E394D02ED826C9
:101CE0008D2D8E21A9F0992099F0F9821A830E94F6
:101CF00087229C838B838D8291E0802F8E2109F433
:101D000090E049815A816B817C818D810E94B6046B
:101D1000F394EE0CF6E0FF12E3CFF5013197008368
:101D20001F5F1A3079F60E94C00D9CCF0813BFCFF9
:101D300096CF1F93CF93DF930E94A80FEC01C1159C
:101D400082E5D80708F03FC0C11590E5D90708F033
:101D5000C2C0C83ED105C0F4C03ED10580F4C53A2A
:101D6000D10548F4C430D10550F4C130D10539F063
:101D7000D0E0C0E004C0CD3CD105D0F3D065CE01A9
:101D8000DF91CF911F910895C11580E4D80708F025
:101D900053C0C11590E2D90708F0B7C0C11581E062
:101DA000D80730F38D2F0E944A10182FCE019927A3
:101DB0000E94A80FC12FD0E0DC2FCC27CC27DF71E9
:101DC000C82BD92BDCCFC03892E5D907A8F4C03690
:101DD00082E5D80708F063C0C03492E5D90708F05F
:101DE00049C0C03282E5D80788F1CF71D0E0DC2F3E
:101DF000CC27C16FD06AC3CFC03C92E5D90780F42D
:101E00008C2F8F71C03AD24508F45EC00E944A10F0
:101E1000C82FD0E0DC2FCC27CC27DF71D062AFCF2A
:101E2000C03E82E5D80708F0A3CFDC2FCC27CC2713
:101E3000DF71C06FD06AA3CFCE0199270E94A80F8F
:101E4000CC27DF70C82BD92BD06A99CF2C2F2695A1
:101E5000269590E2299F900111248C2F8370C1E078
:101E6000D0E002C0CC0FDD1F8A95E2F7C22BD32B46
:101E7000DD6885CF2C2F26952695277080E2289F38
:101E8000900111248C2F8370C1E0D0E002C0CC0FF0
:101E9000DD1F8A95E2F7C22BD32BDC6870CF2C2F85
:101EA00026952695277090E2299F900111248C2F6A
:101EB0008370C1E0D0E002C0CC0FDD1F8A95E2F74D
:101EC000C22BD32BDA685BCFC82FD0E0DC2FCC2716
:101ED000C46FD06A54CF8C2F8F710E944A1055E086
:101EE000D695C7955A95E1F7CF70D0E0DC2FCC2777
:101EF000282F30E084FF05C044E0220F331F4A95AD
:101F0000E1F7C22BD32BD0693ACF8D2F8F710E946E
:101F10004A10182FCE0199270E94A80FC12FD0E098
:101F2000DC2FCC27CC27DF71C82BD92B77CF462FBE
:101F30007A3030F4663020F4672F0E9468030895E9
:101F400090E080E008950E94970F0E94990E0895F6
:101F500082389105B9F1B0F48133910509F47DC05F
:101F600048F48932910509F46DC08A32910509F46B
:101F70007BC008958533910509F45FC089339105CD
:101F800009F10895833E9105D9F138F4803E910519
:101F900029F1823E910579F10895863E9105D9F1A6
:101FA000873E910509F43EC0843E910541F520919C
:101FB0002B0321FF24C080912A0384FD19C087EEE2
:101FC00090E0089520912A03237009F05AC02091CF
:101FD0002B0323FF14C089E290E0089520912A0387
:101FE00020FD38C030912B0330FF09C024FF43C0CF
:101FF00090E080E0089520912A0322FDF7CF089514
:1020000020912A0322FD3AC030912B0330FD39C0C4
:1020100024FFF5CFEDCF20912A0323FFF0CF24FD3D
:10202000E7CFCDCF20912A0323FD2EC030912B0383
:1020300031FFEECF84EE90E0089520912A0325FF32
:10204000DECFC9CF20912A0325FD21C020912B038B
:1020500023FFD5CF89E390E0D2CF20912A0326FF3A
:10206000CECF8AE290E0089520912A0326FFC7CFC1
:1020700081E390E0089583EE90E0089582EE90E091
:10208000089580EE90E0089586EE90E0089585E34F
:1020900090E0089590912A0392FF10C041E0282F0C
:1020A0002471243009F040E031E0282F28712830D5
:1020B00009F030E0431711F02CE0822793FF10C0A5
:1020C00041E0282F2471243109F040E031E0282F2D
:1020D0002871283109F030E0431711F02CE08227F5
:1020E00030912B0330FF10C051E0282F2171213097
:1020F00009F050E041E0282F2871283009F040E035
:10210000541711F029E0822731FF10C041E0282F39
:102110002171213109F040E031E0282F2871283168
:1021200009F030E0431711F029E0822794FD877E03
:10213000089510922C0310922D0310922E031092EA
:102140002F030895CF92DF92EF92FF926B017C01F3
:102150000E94AC1281110EC00E949322C61AD70AA7
:10216000E80AF90AC0922C03D0922D03E0922E03C4
:10217000F0922F03FF90EF90DF90CF9008950F9390
:102180001F930E94AC12882329F00E9493221F9172
:102190000F9108950E94932200912C0310912D031A
:1021A00020912E0330912F03600F711F821F931F08
:1021B000EECF0E94AC12882319F00E948722089566
:1021C0000E94BF10CB01089580E00895CF939C0139
:1021D000205E3245C1E02032310538F4FB01C58173
:1021E000C11103C08F710E94D6038C2FCF91089527
:1021F0000E94EB02089508950E94FB100895E82FB5
:10220000F0E0E55CFC4F80810895089580EA8A95AE
:10221000F1F7089500C008950E94061108950895E9
:102220000E940F110895A5E0B0E0E9E1F1E10C94FE
:102230005D2D0E94AC12F82E60914503882309F4AD
:1022400040C085E0E82E8E010F5F1F4FF8018E2DF4
:1022500011928A95E9F7862F90E0B801855C9C4F32
:102260000E94D2128823B9F08091300390E045E0BB
:1022700050E0B801855C9C4F0E94272E21E02093FE
:102280002802892B91F4F12C0E94FC108F2D2596A9
:10229000E6E00C94792D809128028823A1F3F801BF
:1022A0001192EA94E9F710922802A0913003B0E06D
:1022B000A55CBC4F85E0F80101900D928A95E1F78D
:1022C000E3CF70E0655C7C4F8091300390E0855CEB
:1022D0009C4F0E9459130E941011D8CFF894E82FF8
:1022E000E295EF70F0E031A1282F2F7081E090E0AF
:1022F00001C0880F2A95EAF7982F9095932391A310
:1023000092A1892B82A3789408950F931F93CF9362
:10231000DF93CEE4D1E089918F3F11F00E946E11DE
:1023200081E0C335D807B9F7C8E4D1E00EE411E085
:1023300089918F3F11F00E946E110C171D07C1F794
:10234000DF91CF911F910F910895B0E0A0E0EBEAEB
:10235000F1E10C945B2DEC01D62E062F10E0C801A4
:10236000825B9E4F7C01FC0180818F3F09F444C059
:10237000F894E82FE295EF70F0E091A18F7021E0E2
:1023800030E001C0220F8A95EAF7892F822B81A3C2
:1023900082A12095282322A378940E940A11E8E4C0
:1023A000F1E031E0C12C21912F3F59F1A22FA295EC
:1023B000AF70B0E090968C9190E02F7002C0959530
:1023C00087952A95E2F780FD1CC0832FC82A330F1A
:1023D00081E0EE34F80739F7F70180818F3F11F083
:1023E0000E946E1161E0C11001C060E08D2D0E945D
:1023F0000C11C00FD11FC882CDB7DEB7E8E00C9436
:10240000772D80E0E3CF809106018091060195E071
:10241000811190E09093450385E0891B8093300300
:102420000E9485118AE0EBE3F3E0DF01982F1D9213
:102430009A95E9F7E1E3F3E0DF011D928A95E9F768
:1024400085E00E9464120E94F8100895AAE0B0E0AE
:10245000ECE2F2E10C945E2D8E010F5F1F4F8AE0DB
:10246000F80111928A95E9F7F12C6F2DC8010E94AD
:10247000A511F394F5E0FF12F8CF4AE050E0B8015F
:1024800081E393E00E94272E21E0009709F420E0E9
:10249000892B41F08AE0F801A1E3B3E001900D92AD
:1024A0008A95E1F76091450370E0655C7C4F45E0FB
:1024B00081E393E00E946512182F0E941311812B73
:1024C0002A96E5E00C947A2D0895B0E0A0E0EBE6C2
:1024D000F2E10C945B2D6C017B01042FC22F2223AF
:1024E00079F081E080932B020E94872290932A0248
:1024F0008093290280E0CDB7DEB7E8E00C94772D19
:10250000D0912B02DD23B1F38091290290912A0210
:102510000E949F22059770F310E0A801B601C70141
:102520000E94272E892B31F0A801B601C7010E9415
:10253000342ECD2F10922B028C2FDDCFCF930E9403
:10254000A92CC82F811102C00E94A42C8C2FCF91DE
:10255000089580912F02089580912E0208950E947F
:10256000AC1208950E949E1280932E020E94AF1218
:1025700080932F020E94A912809306010E94AC1240
:1025800081110E94081308950E94AC12811102C0AB
:102590000E940B13089581E0909130029A3008F068
:1025A00080E008950F931F93CF93DF93EC018B018D
:1025B000809130028A30B8F4B801CE010E945613DF
:1025C000C82F811122C0809130028F3FB9F40E9440
:1025D000872290932D0280932C028C2FDF91CF9134
:1025E0001F910F91089580912C0290912D020E94CD
:1025F0009F22843F914000F7C0E0EFCF8F5F809330
:1026000030028A3020F7C1E0E8CF10923002E5CFE7
:102610000E94BE2408950E94C1240895B0E0A0E065
:10262000E4E1F3E10C945C2D7901C82F880FDD0BF8
:1026300041155105A9F0FE0193E0EE0FFF1F9A9599
:10264000E1F7E95FFE4F818192818F5C9D4F208190
:1026500030E04217530708F49A01A9010E94342E72
:10266000CE010E94AA25D82E8823D1F0011511058C
:10267000B9F083E0CC0FDD1F8A95E1F7FE01E95F39
:10268000FE4F438150E00417150708F4A801C95F05
:10269000DE4F6C817D816F5C7D4FC7010E94342EBF
:1026A0008D2DCDB7DEB7E7E00C94782D0E9448144D
:1026B00008950E945F140895A4E0B0E0E2E6F3E11B
:1026C0000C945F2D609148027091490280914A02FA
:1026D00090914B020E94AE2211E064367105810593
:1026E000910518F10E94BF106E5F7F4F8F4F9F4F73
:1026F00069837A838B839C8310E000E030E020E0E4
:1027000044E050E0BE016F5F7F4F82E00E940E13F5
:10271000182F882351F00E949322609348027093EF
:10272000490280934A0290934B02812F2496E4E061
:102730000C947B2DB0E0A0E0E0EAF3E10C94592D7D
:102740007C015B016A010E94CB1201E010E088234A
:1027500011F00AE010E0C1E0D0E0B501C701F601D8
:102760000995811104C021960C171D072CF4CDB7D3
:10277000DEB7EAE00C94752DCC9F9001CD9F300D13
:10278000300D112490E080E045E34A95F1F7000018
:10279000019682179307C1F7E0CFA6E0B0E0E3ED22
:1027A000F3E10C94592D7B01C0905301D09054015A
:1027B00001E010E09E012A5F3F4F50E040E070E0F2
:1027C00060E080E00E940E13182F882309F448C0AF
:1027D00056018FEFA81AB80A609144027091450221
:1027E00080914602909147020E94AE2264367105A4
:1027F0008105910568F105E010E09E012F5F3F4FD4
:1028000050E040E070E060E081E00E940E13D82EBE
:1028100065E070E0C5010E94881E11E09E8198135A
:1028200010E01D2141F10E949322609344027093B5
:102830004502809346029093470285E0FE0131965F
:10284000AFE3B2E001900D928A95E1F711E013C079
:1028500065E070E0C5010E94881E9E818913CBCF80
:1028600085E0F6013196DE01119601900D928A9570
:10287000E1F71111E2CF85E0EFE3F2E0D70101903B
:102880000D928A95E1F7812F2696EAE00C94752D3A
:102890000F931F93CF93DF93EC018B014DEC53E12A
:1028A0000E949A13882331F04CE553E1B801CE0120
:1028B0000E949A13DF91CF911F910F9108950F936A
:1028C0001F93CF93DF93C0915301D0915401CE0158
:1028D000019625E0FB01DC0101900D922A95E1F7BC
:1028E00065E070E00E94881E88836E817F81888504
:1028F000998500913B0210913C0220913D0230915C
:102900003E02601771078207930751F060933B0204
:1029100070933C0280933D0290933E020E94A2106D
:10292000DF91CF911F910F9108950E94240E089579
:102930000E9420220E9452270E94DE0D0E946C27D6
:102940000E940C0E0E9479270E947E270E949514F7
:102950000E9498270E94EC0DF7CF909391018093ED
:10296000900108950F931F93CF938C01FB01C581B4
:10297000CC2309F447C00E94FB0B8272F801E0529D
:10298000F847EB30F10538F4EE53F14D0C941A2D65
:102990000E94391BC0E08C2FCF911F910F91089599
:1029A000882329F00E94271BF5CF8823D9F30E94A2
:1029B000171BF0CF882329F00E94BF17EBCF882385
:1029C000D9F30E94B017E6CF882329F00E94E117BF
:1029D000E1CF8823D9F30E94D017DCCF882329F0D8
:1029E0000E940318D7CF8823D9F30E94F217D2CFC1
:1029F000882329F00E948216CDCF8823D9F30E9424
:102A00006216C8CFC1E0C7CFEF92FF920F931F931A
:102A1000CF93DF939B01682F31110EC0442329F01F
:102A2000E82FF0E0EA55FC4F6491762F862FCDB762
:102A3000DEB7E6E00C94792DC32FD0E0E82FF0E06C
:102A4000442321F0EA55FC4FE491F0E046E0249F56
:102A5000C00111240FEF10E0B8010E94D02CAB018F
:102A6000822F90E0880F991F25E5249FB001259FB4
:102A7000700D1124861B970B982F990F980FB80192
:102A80006C1B7D0B6E9FD0016F9FB00D7E9FB00DB4
:102A900011248B2F939F90011124232F3327B801EA
:102AA000621B730B6E9F90016F9F300D7E9F300DE8
:102AB00011247801E91AF108EC9EB001ED9E700D29
:102AC000FC9E700D1124672F7727061B170B0E9F96
:102AD000E0010F9FD00D1E9FD00D11247D2F9E2F42
:102AE0004230510599F048F44115510569F04130E3
:102AF000510581F07B2F832F07C04430510569F0C9
:102B000080F046305105B1F7692F91CF9B2F8D2F63
:102B10007E2FFACF7E2F932FF7CF9D2F7B2F8E2FD7
:102B2000F3CF732F9B2FFBCF41E00E940415089534
:102B300008950E949415089590912201291B922FC7
:102B4000E0918201F0918301242F462F682F892F75
:102B500090E009950895CF93DF93762FE901682FD0
:102B6000842F0E949915962F672F9E01482F892F39
:102B70000E949C15DF91CF910895493708F048E7EE
:102B80000E94AB15089580914603982F9C7F61F4B5
:102B9000837084608093460380914903893718F0DD
:102BA00088E78093490308958C3AB0F38370886A6C
:102BB000F1CFB0E0A0E0EFEDF5E10C945B2D88E003
:102BC00090E00E94452E6B017C0183E290E00E9420
:102BD0003D2E282F30E040E050E060E070E080E0E3
:102BE00090E000E20E94882DB22FA32FF42FE52F52
:102BF000D62FC72F97018601BC29A12BFE295E2F56
:102C0000532B2B2F3A2F4F2F6D2F7C2FCDB7DEB7A5
:102C1000E8E00C94772DB0E0A0E0E1E1F6E10C945F
:102C2000572D49015A016B017C010E94C315840193
:102C3000A4016A2D7B2D88E090E00E94732E940100
:102C40004A2D5B2DB601C70100E20E94A32D622F21
:102C500083E290E00E94612ECDB7DEB7ECE00C94E9
:102C6000732DE6E4F3E085E0808311828FEF8283A9
:102C700088E783831482758125E030E04FEF58E7C1
:102C800060E0868197810E940B16089590914A0317
:102C9000933018F49F5F90934A03882391F020911A
:102CA0004603309147034091480350914903609196
:102CB0004A0370914B0380914C0390914D030E9405
:102CC0000B16089581E00E944616089590914A03DC
:102CD000992319F0915090934A03882391F0209101
:102CE0004603309147034091480350914903609156
:102CF0004A0370914B0380914C0390914D030E94C5
:102D00000B16089581E00E94661608950F931F9395
:102D1000CF938091460380FF09C0E0918601F09136
:102D200087010995CF911F910F910895C0912401BA
:102D3000009182011091830180912501C81768F7E5
:102D4000809122019C2F981B892F20E040E060E0B9
:102D500090E0F8010995CF5FEFCFEF92FF920F93CC
:102D60001F93CF93DF93D82F162F042F8091460304
:102D700080FF0CC0C0912401E0908201F09083019B
:102D800080912501C81738F00E948616CDB7DEB7AE
:102D9000E6E00C94792D809122019C2F981B892FBD
:102DA000202F412F6D2F90E0F7010995CF5FE8CFDD
:102DB000762F9091460390FF0DC0493708F048E701
:102DC000682F842F0E949415962F672F482F892FE4
:102DD0000E94AD160895CF93DF93EC01EC81F0E0F3
:102DE000EF55FD4F4491E6E4F3E0628181810E945A
:102DF000D8168C818F5F8C83DF91CF910895CF930C
:102E0000DF93EC01E6E4F3E0438162818C810E9470
:102E1000D8168C818F5F8C83DF91CF910895CF93EB
:102E2000DF93EC01409149039C81892F817090FDD3
:102E3000842F692F627091FD642F92FF40E00E9401
:102E4000AD168C8190E00196877099278C83DF9175
:102E5000CF910895B0E0A0E0E0E3F7E10C945C2DA1
:102E6000182FF62ED42FE22E9091460390FF32C0F9
:102E7000E92FE695E695AE2FB0E0AB5ABE4F8C91A8
:102E80008093DC029C7F943051F5842F493708F001
:102E900088E7612F7F2D0E949415962F672F482F6A
:102EA000892F0E94AD1610934703F0924803D093E8
:102EB0004903EE2079F02091460360914A03709116
:102EC0004B03312F4F2D5D2F80914C0390914D037B
:102ED0000E940B16CDB7DEB7E7E00C94782D823058
:102EE00019F4D0914903DFCF863019F410914703CC
:102EF000DACF8930D9F38931B1F6E9518E2F81705B
:102F0000D82EE695F0E0EF55FC4FC49100E06091BB
:102F10002601061718F00E948616C5CF0C9FC00127
:102F2000112470E00E94D02C812FD1100CC0860F8C
:102F300020912401200F3327331F4D2F6F2D0E9426
:102F4000BD150F5FE4CF861BF3CFE6E4F3E091817C
:102F5000282F438162818AE0890F0E942A170895F1
:102F600081E00E94A5170895E6E4F3E09181282FFF
:102F70004381628186EF890F0E942A17089581E0BC
:102F80000E94B4170895E6E4F3E0628121E1620F44
:102F900008F46FEF282F438181810E942A1708953A
:102FA00081E00E94C3170895E6E4F3E0628121E125
:102FB000621B08F460E0282F438181810E942A1758
:102FC000089581E00E94D4170895E6E4F3E0438178
:102FD00021E1420F08F44FEF282F628181810E9486
:102FE0002A17089581E00E94E5170895E6E4F3E0CA
:102FF000438121E1421B08F440E0282F6281818156
:103000000E942A17089581E00E94F617089520E093
:103010000E942A170895EF92FF921F93CF93DF9398
:10302000EC0110E0EE24EA94F12C609126011617D1
:1030300070F00E9486169A818C8190FF1EC08F5F6F
:103040008C83DF91CF911F91FF90EF900895209195
:103050002401210F3327331F70E0C7010E94E42CA5
:10306000962F8C814091490360914803199F800DF0
:1030700011240E94BD151F5FD8CF8150E1CFB0E071
:10308000A0E0E5E4F8E10C94592DFC018281DFEF2A
:1030900080FFD1E0C0E000918201109183012BE11B
:1030A000A22E80912601C81798F00E948616809162
:1030B0004D02D13009F050C0811102C0809126012B
:1030C000815080934D02CDB7DEB7EAE00C94752DA8
:1030D0008091240190912201891B8C0F20E040E017
:1030E00060E090E0F801099594E0E92EF12CB12C14
:1030F000CC2ED12C80914D028B0D8C313CF16A2D60
:103100000E94C22C892F082E000C990BC816D906D4
:10311000B1F4209124012C0D3D2D311D80914903E6
:103120008E9DA0018F9D500D112455954795559565
:10313000479560914803809147030E94BD15BD0EDD
:10314000F1E0EF1AF108B1F6CF5FABCF87FFDBCF2D
:1031500090912601890FD7CF90E0019660912601CA
:1031600070E00E94E42CADCF0F931F93CF93C091DA
:103170002401009182011091830180912501C817DB
:1031800050F1C0E00091820110918301609126010D
:10319000C61770F10E9486162091200180914C0282
:1031A000820F80934C0290912101920F9093210104
:1031B000191654F4082E000C990B40912601415029
:1031C000550B841795071CF0219520932001CF9172
:1031D0001F910F910895809122019C2F981B892F98
:1031E00020E040E060E090E0F8010995CF5FC5CFB6
:1031F000EC2FF0E070E0CF010E94E42C209124013C
:10320000820F20914C02022E000C330BE217F307C1
:10321000A4F020912101022E000C330B2E173F0742
:1032200064F0282F30E04091490360914803809179
:1032300047030E94BD15CF5FA9CF90912201891B42
:1032400020E040E060E090E0F8010995F4CFB0E0C4
:10325000A0E0EDE2F9E10C94572DEC014C81042F34
:1032600010E09801D8010E94282D9B01AC010E941A
:103270003E2D4B015C01E0E2F0E0E01BF10BA5E527
:10328000B0E0AC019B010E943E2D6B017C019F01CF
:10329000DF010E94202D9B01AC010E94492D9B0162
:1032A000AC01280D391D4A1D5B1DC701B6010E94E6
:1032B000F82CF22E822F90E039E23F1520F143E006
:1032C000249F9001112435952795122F109500E029
:1032D00085E5E82EEF1880912601081720F10E945D
:1032E00086169C8181E0992319F0903219F48FEFB2
:1032F00080931F0180911F01890F8C83CDB7DEB7AA
:10330000ECE00C94732D25E530E0A901481B590B26
:10331000CA019A01220F331F280F391F37FFD3CF5D
:103320002F5F3F4FD0CF8E2D01FD8F2D2091240197
:10333000200F3327331F412F609148030E94BD1592
:103340000F5FC9CF0F931F93CF93DF938C01D0E012
:10335000C0E0909126019C171D0609F074F40E94AC
:103360008616F801848190E0019681709927848304
:10337000DF91CF911F910F910895F8014481209121
:1033800024012C0F3D2F311D60914803809147038C
:1033900096959C171D0649F044F0442341F0409156
:1033A00049030E94BD152196D4CF4423C1F340E0C8
:1033B000F8CFB0E0A0E0EFEDF9E10C94532DFC0163
:1033C0006280448081E08483E1EAF2E07490E0E28C
:1033D000F3E0E491C0914903C695C158D0E0CC0F09
:1033E000DD1FCD2FDD27812C25E0922EAA24AA9463
:1033F000B12C55245A94E719EE2EF12C8091260118
:10340000881638F00E948616CDB7DEB7E0E10C943E
:103410006F2DC82CD12C82E0861568F09C9CF001A1
:103420009D9CF00D1124E25BFD4F8091470380834A
:1034300080914803818341101CC09C9CF0019D9C9D
:10344000F00D1124E25BFD4F1382128220912401C2
:103450002C0D3D2D311D9C9CF0019D9CF00D1124E7
:10346000E25BFD4F4281618180810E94BD158394A2
:10347000C5CF9C9C80019D9C100D1124025B1D4FAB
:10348000F80183818823F1F081508383859DC001F9
:103490001124648170E00E94D02CFB01FF27EF55BE
:1034A000FD4F8491E82FE719E59DC0011124B70174
:1034B0000E94D02C80914903689FB0011124F8012B
:1034C0007283C4CF0E940A2EB5010E94E42C8C178F
:1034D0009D070CF0BBCFF2E0F61598F40E940A2E7F
:1034E000B5010E94E42CF80180830E940A2E2091ED
:1034F00048032695622F70E00E94E42C280FF80103
:1035000021839C9CF0019D9CF00D1124E25BFD4FFA
:10351000128280914903893C58F088EC9C9CF00110
:103520009D9CF00D1124E25BFD4F848383838ECF3D
:103530008431A0F784E1F2CFE6E4F3E020812E7F2E
:103540002083318142815381648175818681978195
:103550000E940B161092DD020E948616089560915B
:1035600046036695669570E04BE050E087E291E097
:103570000E941A2E892B19F481E08093DD020E94AB
:10358000D9109093D6028093D50208959091460366
:1035900090FF34C09370811132C0946090934603C1
:1035A000662391F0209146033091470340914803F0
:1035B0005091490360914A0370914B0380914C03F1
:1035C00090914D030E940B16609146036695669597
:1035D00070E04BE050E087E291E00E941A2E892BC8
:1035E000B1F01092DD0281E08093D802409149034E
:1035F00060914803809147030E94071808958B3219
:1036000010F0986ACBCF880F880F982BC7CF0E94F5
:10361000AF1AE9CF682F909146039695969581E071
:10362000890F8B3208F081E00E94C61A089581E06C
:103630000E940A1B0895682F9091460396959695CF
:103640008FEF890F09F48AE20E94C61A089581E07B
:103650000E941B1B089561E00E94C61A0895E6E4CB
:10366000F3E0808181608083869586950E942B1B84
:1036700008958091460380FF03C00E949C1A08951C
:103680000E942F1B089560E00E94C61A0895809141
:10369000DB0281113CC00E94D91520934603309370
:1036A0004703409348035093490360934A03709340
:1036B0004B0380934C0390934D032C7FA1F40E9405
:1036C00031160E94D9152093460330934703409347
:1036D00048035093490360934A0370934B038093CC
:1036E0004C0390934D030E94C3151092DD02E091AC
:1036F0008001F091810109958091460380FF04C00B
:10370000869586950E94431B81E08093DB02089595
:103710000F931F93CF93DF938091DD028823C1F134
:103720008091DC02E0914603E695E695E81BE09384
:10373000D702823091F5F0E0E356FD4FE491CE2FB1
:10374000D0E00BEE16E18091D802882361F0109250
:10375000D8020E94D9109093D6028093D50210927D
:10376000DA021092D9020E94D910E091D502F091AC
:10377000D6028E1B9F0B8F3F9F4750F4EC0FFD1F0F
:10378000F093D602E093D50285ED92E0F801099519
:10379000DF91CF911F910F910895863049F4F0E0A9
:1037A000E656FD4FE491CE2FD0E00FEF16E1CBCFE0
:1037B000893051F4E695F0E0E956FD4FE491CE2FC3
:1037C000D0E00BE018E1BFCF8F3051F4E695F0E088
:1037D000EC56FD4FE491CE2FD0E00FE318E1B3CFCC
:1037E000853149F4F0E0EF56FD4FE491CE2FD0E063
:1037F00004EB18E1A8CFC8E2D0E007E219E1883174
:1038000009F4A1CF833239F4EFE8F2E0C591D49105
:103810000FE017E198CFC4EFD1E002EA19E184325A
:1038200009F491CFC0EDD7E008E915E1853209F040
:103830008ACF8E2F63E00E94B62CE92FF0E0E45788
:10384000FD4FE491CE2FD0E009ED19E17CCF089532
:103850000E94881B0895AB0124E630E0BC0188E794
:103860000E94902321E0892B09F020E0822F089507
:10387000AB0124E630E0BC0188E70E94D42321E0BC
:10388000892B09F020E0822F08950F931F939B014D
:1038900004E610E0AC0160E488E70E941A2421E00D
:1038A000892B09F020E0822F1F910F9108950E942B
:1038B0005C23089508950E945A1C0895EEE4F3E0F5
:1038C00080E092E0DF019C011D9221503040E1F741
:1038D000F0935505E09354058FEF9FEF9093040309
:1038E000809303030895CF930E945A1C0E945B1C8F
:1038F0008093FF0280FD11C080E88093FE020E9449
:10390000571C6BE070E081EC94E00E94381C811140
:1039100006C0C0E08C2FCF91089580E2EECF809159
:10392000FF0265E070E081FD27C08CEB94E00E940F
:10393000381C882371F36DE070E08AEA94E00E94FD
:10394000381CC82F882329F30E949322605A75419E
:103950008F4F9F4F60935005709351058093520590
:10396000909353050E945E1C81E080930203809334
:10397000010310920003CECF87EB94E0D8CF2091C3
:10398000FE0236E0839FC0011124629F800D911DCD
:103990001124811522E0920714F090E080E0825B10
:1039A0009C4F909355058093540508958091020390
:1039B000811103C08091010308950E949322605AEF
:1039C00075418F4F9F4F60935005709351058093C1
:1039D000520590935305809101038111EBCF62E072
:1039E00070E088EA94E00E94381C882319F381E093
:1039F00080930103DFCFA6E0B0E0E1E0FDE10C94AD
:103A0000512D182F8091030390910403892B09F104
:103A1000809102038823E9F080910003811119C08D
:103A20000E94D61C1C821B8222242394312C03E08A
:103A300060E9E62E61E0F62E77E0672E80910303C1
:103A400090910403009729F0BC81BB2349F0111128
:103A500007C02696E2E10C946D2D2B812F5F2B83FE
:103A60003B81C32ED12C210102C0440C551C3A9538
:103A7000E2F7920128233923232B79F38091FF0267
:103A800080FD3EC08B818295880F807680933401C3
:103A90009601369527953695279520933701815EB7
:103AA000809335012093380167E070E082E391E074
:103AB0000E942B1C882369F2C60135E0880F991FEC
:103AC0003A95E1F72091FF0220FD28C060E270E006
:103AD000825B9C4F0E94451C882309F4BACFC20127
:103AE00080959095409003035090040348225922FA
:103AF00050920403409203034C814F5F4C839ECF4E
:103B00008B81880F880F880F8093340110923701C2
:103B1000895F8093350100933801C6CFAEEDB2E0E6
:103B2000E0E21D92EA95E9F72CE831E03E832D832F
:103B300028E8C22E21E0D22EAD81BE816D91BE83D8
:103B4000AD83F60121916F01280F392F311DA90195
:103B5000425B5C4F5A834983E62FF0E0E252FD4F0F
:103B600030E020E0762C721A922C022E01C0990CC3
:103B70000A94EAF769817A81A12CDB01BD90BD012D
:103B8000B920472D4A194770842E042E000C550B7E
:103B9000BB2D01C0BB0F8A94EAF78B2E519541953E
:103BA00051094770552701C0B6944A95EAF78B280A
:103BB000B0808B288082A39448E0A412DECF2F5FD0
:103BC0003F4F31962830310569F6AD81BE81EA1646
:103BD000FB0609F0B1CF60E270E08EED92E07ACFA3
:103BE0008091010390910203911103C091E0892714
:103BF0000895882369F062E070E086EA94E00E940C
:103C0000381C811103C080910103089510920103B3
:103C100080910103EBCF81E008950E940B1E08956F
:103C20000F931F9380910203882381F180914E05A9
:103C300090914F050E949F22C29760F00E948722B8
:103C400090934F0580934E0560E080E00E94BF1C7A
:103C50000E940D1E80E00E94FB1C809101038823BE
:103C6000A9F00E94932200915005109151052091D6
:103C7000520530915305601B710B820B930B6F3F04
:103C80007F4F8F4F9F4710F40E94F01D1F910F919F
:103C90000895539A0895FC01EE0FFF1FE80FF91FD6
:103CA000EA5AFA4F6183408322830895E6E5F5E0FE
:103CB000818360834283339695E0E73AF907C1F741
:103CC00008953BB1377F2BB128604FB7F89486E554
:103CD00095E0FC015191CF0168E02BB9000000C0D4
:103CE00057FF3BB9550F000000C000C000C03BB9F2
:103CF00000C06A9591F7F5E0873A9F0751F74FBFEB
:103D00008FE594E00197F1F700C000000895089551
:103D1000FC01680F791F8FEF91E3E617F70709F4AD
:103D200008952191822728E030E087FF06C0880FA0
:103D3000892721503109C9F7F0CF880FFACFCF93E7
:103D4000DF93EB0186319C4711F50E94FB0B9D81AF
:103D5000992399F08A7A91E009F490E09093050311
:103D6000811109C089E20E946A210E948A0C80E0C8
:103D7000DF91CF91089585E3F6CF809105038111FE
:103D800004C089E20E947221F0CF85E3FBCF81E07D
:103D9000EFCFCF93DF93EC01FB018581882309F4FA
:103DA000D2C09E0130572332310508F0B2C00E94C4
:103DB000100D90932B0380932A03FE01E150F047EE
:103DC000E232F10520F4E353F14D0C941A2D809169
:103DD0002A03816080932A0393C080912B0388601B
:103DE00080932B038DC080912A038260F3CF809152
:103DF0002A038460EFCF80912A038860EBCF809103
:103E00002B038160EDCF80912B038260E9CF8091FD
:103E10002A038061DFCF80912A038062DBCF80910B
:103E20002A038064D7CF0E94750780912A03806897
:103E3000D1CF80912A038C60CDCF80912B038360FA
:103E4000CFCF80912A038E7FC5CF80912B03877FB0
:103E5000C7CF80912A038D7FBDCF80912A038B7FAE
:103E6000B9CF80912A03877FB5CF80912B038E7FB6
:103E7000B7CF80912B038D7FB3CF80912A038F7EA4
:103E8000A9CF80912A038F7DA5CF80912A038F7BB4
:103E9000A1CF0E94750780912A038F779BCF8091D5
:103EA0002A03837F97CF80912B038C7F99CF8091BA
:103EB0002A0382FB992790F921E0922790FB82F94F
:103EC00090FB83F987CF80912B03982F9095917069
:103ED0008E7F892B90FB81F983CF90912A03892FC4
:103EE0008F7B96FF806476CF0E94750790912A039E
:103EF000892F97FB87F980586DCF81E00E94960D3E
:103F000080912A0390912B030E94150D0E94750742
:103F100080E0DF91CF91089580E0F0CF90912A0367
:103F2000892F8F7E94FF806155CF90912A03892F2E
:103F30008E7F90FF81604ECF90912B03892F877FDA
:103F400093FF88604DCF81E0E4CF809110038230F1
:103F500039F580910803882319F180910603909127
:103F600007030E949F228A3F9105D0F01092080318
:103F7000109207031092060390911203809111038F
:103F8000981304C080913901882351F010923901AF
:103F90008091120380931103809112030E94F50215
:103FA0000895AC01909113039F5F90931303509376
:103FB00018034093170342305105F9F4809114031C
:103FC0008F5F809314039330D8F130911603323011
:103FD00038F080911503811143C0931709F43EC056
:103FE000209114039530D9F44F3F510509F5313034
:103FF000F9F4223079F593E018C04430510531F4DA
:10400000809115038F5F80931503DDCF4F3F5105DE
:10401000D1F6809116038F5F80931603D4CF94302E
:1040200039F4311117C0223029F49093120308C0DB
:10403000311110C0233021F4909115039130A9F370
:104040000E948722909307038093060381E0809368
:104050000803089580911503282B91F791E0E5CF8F
:1040600092E0E3CF30910C0320911003321720F43B
:104070002091100320930C0360930D0370930E03A3
:1040800080930F03909310030E948722909307035D
:104090008093060381E08093080308950F931F9394
:1040A000CF93DF93C42FD22FFC0185818823C9F0E1
:1040B00040931B030E94872290931A038093190355
:1040C00080E28C0F883040F4C77081E001C0880F17
:1040D000CA95EAF70E944F05DF91CF911F910F918A
:1040E000089510911B03141332C08091190390910D
:1040F0001A030E949F228436910548F5C0E2CD0F35
:104100001D17B9F080E2810F883040F4177081E00C
:1041100001C0880F1A95EAF70E945605C83048F486
:1041200081E09D2F977001C0880F9A95EAF70E9451
:104130004F05802F0E944605C83070F6D77081E089
:1041400001C0880FDA95EAF70E945605C5CF80E2D4
:104150008C0F883008F6C77081E001C0880FCA95BF
:10416000EAF7F2CF0F93DB0188519C478730910526
:10417000A0F5FC01E151F14D0C941A2D06E221EE5F
:1041800041EE6AE17CE7CD010E944E2080E00F9174
:10419000089507E225EE45EE6BE17CE7F4CF06E2F9
:1041A00021EE40EE68E17CE7EECF07E225EE44EE3B
:1041B00069E17CE7E8CF06E221EE42EE6CE17CE7C4
:1041C000E2CF07E225EE46EE6DE17CE7DCCF08E2C8
:1041D00021E045EE6EE17CE7D6CF15968C918823E1
:1041E00019F010921B03D3CF81E0D1CF90931E031F
:1041F00080931D0308950E94AC12811103C0809129
:104200001C030895E0911D03F0911E03309729F0DF
:104210000190F081E02D0995089580E00895E091E6
:104220001D03F0911E03309721F00280F381E02DF1
:104230000995089540910401509105019A012E5F5E
:104240003F4F485F5F4F80E02417350709F408951A
:10425000F90191919F019923B9F38F5FF5CF8823DD
:1042600071F02091040130910501F9013296285F27
:104270003F4F9191981729F0E217F307D1F780E0AB
:10428000089581E008959C01FC0132969FEF80E043
:104290004191461751F09F3F19F4411101C0982FE9
:1042A0008F5F8630A9F79F3F09F40895290F311DCC
:1042B00097FD3A95F90162830895FC0132960896BC
:1042C0002191261303C0DF0111971C92E817F9070B
:1042D000B9F70895682F80910401909105010E941B
:1042E00043210895682F80910401909105010E9457
:1042F0005D210895E0910401F0910501329686E078
:10430000DF011D928A95E9F7089508950E9485219D
:104310000895CF92DF92EF92FF926B017C010E9491
:104320008621C701B6010E943220FF90EF90DF90F6
:10433000CF90089581110EC081E080933D0160917E
:104340003A0170913B0180913C0190913D010E94A6
:104350008921089582E0F1CF83E080933D0160914F
:104360003A0170913B0180913C0190913D010E9486
:10437000892108950E949A21089581E080933D014A
:1043800060913A0170913B0180913C0190913D0117
:104390000E94892108950E94BD21089591E0811114
:1043A00001C090E090933C0160913A0170913B0113
:1043B00080913C0190913D010E9489210895809156
:1043C0003C01089580933B0160913A0170913B015B
:1043D00080913C0190913D010E9489210895809136
:1043E0003B01089580933A0160913A0170913B013D
:1043F00080913C0190913D010E9489210895809116
:104400003A010895089508950E9403220895089599
:1044100008950E9402220895CF930E9407220E94CD
:1044200026120E940822C0E08C2F0E94FF108111EA
:1044300005C0CF5FCA30C1F7CF91089581E0FCCFAE
:1044400085B7806885BF85B7806885BF08951F924E
:104450001FB61F9211248F939F93AF93BF938091A8
:104460001F03811113C08091A7059091A805A09109
:10447000A905B091AA054196A11DB11D8093A7057C
:104480009093A805A093A905B093AA05BF91AF91F9
:104490009F918F911F901FBE1F9018958091AF051F
:1044A000843031F10E94720410921F0388E190E081
:1044B00020E40FB6F894A895809360000FBE209377
:1044C000600083B7817F846083BF83B7816083BFCF
:1044D0007894889583B78E7F83BF0FB6F894A8959C
:1044E00080916000886180936000109260000FBE30
:1044F00008950E9475070E947904089582E084BDA2
:1045000093E095BD9AEF97BD80936E0008952FB705
:10451000F8948091A7059091A805A091A905B09164
:10452000AA052FBF08952FB7F8946091A705709141
:10453000A8058091A9059091AA052FBF08959C0117
:104540004FB7F8948091A7059091A805A091A9056F
:10455000B091AA054FBF821B930B0895CF92DF92B3
:10456000EF92FF922FB7F894C090A705D090A805BE
:10457000E090A905F090AA052FBFA7019601261B80
:10458000370B480B590BCA01B901FF90EF90DF9030
:10459000CF90089578941F921FB61F9211248F9385
:1045A0009F93AF93BF938091A7059091A805A09189
:1045B000A905B091AA050196A11DB11D8093A7057B
:1045C0009093A805A093A905B093AA05BF91AF91B8
:1045D0009F918F911F901FBE1F90189587E797E7B7
:1045E000909301088093000888E19AE00FB6F89450
:1045F000A895809360000FBE90936000FFCF88E184
:104600009AE00FB6F894A895809360000FBE90933F
:104610006000FFCFEF92FF920F931F93CF93DF9332
:10462000182FEB011092BC0084EA8093BC000E941A
:1046300087227C018091BC0087FF27C08091B90050
:10464000887F883029F08091B900887F803189F592
:104650001093BB0084E88093BC000E9487228C01E9
:104660008091BC0087FF1EC02091B900287F90E098
:1046700080E0283191F081E090E0203411F490E066
:1046800080E091958195910908C0C7010E949F2201
:10469000C817D90778F68EEF9FEFCDB7DEB7E6E003
:1046A0000C94792DC8010E949F22C817D907C0F623
:1046B000F2CF8FEF9FEFF1CF1092B9008CE0809393
:1046C000B80008950F931F93CF93DF93EB0180936E
:1046D000BB0084E88093BC000E9487228C018091FB
:1046E000BC0087FF11C02091B900287F81E090E0D5
:1046F000283211F490E080E0919581959109DF9145
:10470000CF911F910F910895CF3FDC0741F3C8016E
:104710000E949F22C817D90710F78EEF9FEFEFCFA7
:10472000B0E0A0E0E6E9F3E20C94562D782E5B01B0
:104730006A0189010E9487224C01C1E0D0E0043166
:10474000110558F0C5E0D0E00F3F100731F0C80167
:1047500064E170E00E94D02CEB01BE01872D0E9425
:104760000A237C0197FF09C00F3F1007B1F3C40172
:104770000E949F220817190780F7E501CA0CDB1C6D
:10478000CC15DD0511F0F7FE09C084E98093BC006B
:10479000C701CDB7DEB7EDE00C94722DB801899159
:1047A0000E9462237C01ECCFB0E0A0E0EAEDF3E2EE
:1047B0000C94562D782E5B016A0189010E94872294
:1047C0004C01C1E0D0E00431110558F0C5E0D0E063
:1047D0000F3F100731F0C80164E170E00E94D02C57
:1047E000EB01BE01872D0E940A237C0197FF09C0BF
:1047F0000F3F1007B1F3C4010E949F220817190749
:1048000080F7E501CA0CDB1CCC15DD0511F0F7FEC5
:1048100009C084E98093BC00C701CDB7DEB7EDE0E5
:104820000C94722DFE018491B8010E9462237C01D8
:104830002196EACFB0E0A0E0E0E2F4E20C94552D3E
:10484000682E762E5A0169010E9487224C01C1E030
:10485000D0E00431110558F0C5E0D0E00F3F10075B
:1048600031F0C80164E170E00E94D02CEB01BE0180
:10487000862D0E940A237C0197FF1DC00F3F100761
:10488000B1F3C4010E949F220817190780F784E939
:104890008093BC00C701CDB7DEB7EEE00C94712D5C
:1048A000B80189910E9462237C01CC16DD0679F360
:1048B000F7FEF6CFECCFB801872D0E9462237C0172
:1048C000E501CA0CDB1CF1CF8EE14A9B02C081508E
:1048D000E1F74A9BFECF08955A9880E28A95F1F756
:1048E0005A9A0895FC013BE03A95F1F798E020E0F0
:1048F00080E031E040E14A95F1F7880F4A9B02C021
:104900008160232742E04A95F1F7000040E14A9593
:10491000F1F7915079F790E19A95F1F799B132E07A
:104920003A95F1F7000040E14A95F1F792FB99279B
:1049300090F992272081920F90830895A1E0B0E032
:10494000E4EAF4E20C945D2D19828C017C01E60E00
:10495000F11C0E151F0541F481E09981911180E051
:104960002196E6E00C94792D0E946424CE010196F4
:104970000E947224F80181938F01EBCF529A5A9AC8
:10498000089552985A9AEA9AE9E6F0E080818F7C7D
:10499000808308956150770B91E001C0990F6A956B
:1049A000EAF720E031E0911108C0222391F05A9AF1
:1049B00080E28A95F1F75A980895492F482339F0F3
:1049C0005A9A232740E24A95F1F79695ECCF5A98E8
:1049D000F9CF5A98EDCFFF920F931F93CF93DF93A8
:1049E000EC018C01060F111DC017D10729F4CDB7BA
:1049F000DEB7E5E00C947A2DF9900E946C2468E013
:104A00008F2D0E94CA24F0CF1F920F920FB60F92E3
:104A100011240F931F932F933F934F935F936F93A3
:104A20007F938F939F93AF93BF93EF93FF93CF9316
:104A3000DF930F92CDB7DEB719820E946424CE01B6
:104A400001960E947224082F069506950695282F38
:104A500022952570902F9570290F922F937026958F
:104A60002695920F982797708981982B09F05CC042
:104A7000043008F059C080E18A95F1F75A9A529AA9
:104A800082E08A95F1F700C05A9888E0089F80017B
:104A90001124D801A95FBE4F1696ED91FC9117978E
:104AA0003097A9F0609153017091540114962D91A3
:104AB0003C911597260F371F11968D919C91129757
:104AC000680F791F13964C9113978C910995F801F3
:104AD000E95FFE4F6381662351F0209153013091CD
:104AE000540184819581820F931F0E94EB240E94C0
:104AF0006C2480E18A95F1F75A9852985A9A80E18D
:104B00008A95F1F7F801E95FFE4F6081662351F065
:104B1000209153013091540181819281820F931F22
:104B20000E949E240E9464240F90DF91CF91FF91F8
:104B3000EF91BF91AF919F918F917F916F915F9115
:104B40004F913F912F911F910F910F900FBE0F909A
:104B50001F9018950F931F93CF93DF93EC01049749
:104B60000CF04CC0F894529A5A9885E08A95F1F767
:104B700000009C2F969595708C2F8570980F892F2B
:104B800083709695969523E0CC0FDD1F2A95E1F76B
:104B9000980F8E01092B0E946C2400C068E0802FC2
:104BA0000E94CA2480E18A95F1F752985A9A4A9B4A
:104BB0001EC087E090E04A991CC0FE01E95FFE4FED
:104BC00063816623F9F0209153013091540184816F
:104BD0009581820F931F0E949E24811113C0529AC7
:104BE0005A9A7894DF91CF911F910F91089500C048
:104BF000DECF019729F4529A5A9A789480E0F2CF46
:104C000000C0D9CF0E94642480E28A95F1F75A98B7
:104C1000529A80E18A95F1F7C95FDE4F6881662379
:104C200051F0209153013091540189819A81820F72
:104C3000931F0E94EB240E946C24789481E0D2CFD1
:104C40000895089508959B01BA019091AF0594309D
:104C5000E9F48F708093E9009FEF8091E800915014
:104C600085FD06C085ED8A95F1F700009111F5CF1D
:104C70008091E80085FF0AC050E040E0C9010E9431
:104C80001D288091E8008E778093E8000895CF93E7
:104C9000DF93EC010E94DF2148E050E0BE0181E09B
:104CA0000E94232688E0FE01A0E2B3E001900D926D
:104CB0008A95E1F7DF91CF9108958091AE0581113A
:104CC00009C00E94AD290E940A2A8091E2008460F6
:104CD0008093E20008951092AE0508950E94BD21D0
:104CE00081E00E94CE2108956091AB0581E06111C1
:104CF00001C080E00E94AC2108959091AF0581E051
:104D0000943009F080E06091AB050E94BA210895CB
:104D100042E061EC81E00E9429299091AF0581E099
:104D2000943009F080E06091AB050E949A210895CB
:104D30008091B105833009F461C030F48130D1F144
:104D4000823009F49EC008958A3009F48AC08B30FD
:104D500009F46FC0893009F050C08091B0058132EC
:104D600009F04BC08091B4059091B505892B09F0ED
:104D700044C08091E800877F8093E8008091E8003C
:104D800082FF37C09091F3008091F200029731F4D6
:104D90008091F100813011F0863021F48091F10092
:104DA0000E94E2218091E8008B778093E8000E94C6
:104DB0005D2923C08091B005813AF9F48091E80023
:104DC000877F8093E8008091B4059091B505892B89
:104DD00061F468E080E293E070E00E946C288091CA
:104DE000E8008B778093E800089560E090E080E031
:104DF000F3CF8091AF058111C1CF08958091B005A7
:104E0000813AD9F78091B4059091B505892BA9F71E
:104E10008091E800877F8093E8008091E80080FF20
:104E2000FCCF0E94DF218093F1008091E8008E7713
:104E3000BCCF8091B005813201F78091B40590918B
:104E4000B505892BD1F68091E800877F8093E80033
:104E50000E945D298091B2050E94CE210E947507B3
:104E600008958091B005813241F68091E800877FF6
:104E70008093E8000E945D298091B3050E94F22191
:104E800008958091B005813A09F0B7CF8091E8008C
:104E9000877F8093E8008091E80080FFFCCF0E942C
:104EA000FF21C1CF84B7877F84BF0FB6F894A89540
:104EB00080916000886180936000109260000FBE56
:104EC00080E890E00FB6F8948093610090936100C1
:104ED0000FBE0E94CB2108950E94AD290E940A2A8C
:104EE000E2EEF0E080818460808378940E94892CD7
:104EF00008958EE391E00E94F62008958091AF0519
:104F0000853031F48091AF05853019F00E94792207
:104F100008950E944E220E940C22882399F38091CA
:104F2000AD05882379F30E9407280E947507EACF10
:104F300008959A014091B6055091B7050E94A127A6
:104F40000895EF92FF920F931F93CF93DF93790110
:104F5000292F33272330310511F198F4C2E1D0E035
:104F600004E115E02130310549F1C2E2D0E002EF61
:104F700014E02230310511F1D0E0C0E010E000E093
:104F80001DC02132310509F43AC022323105A1F7A2
:104F9000C4E4D0E006E215E0672B71F70FC0992753
:104FA00081309105E1F0009791F0029701F1D0E096
:104FB000C0E010E000E0CA010E94D11FF701118398
:104FC0000083CE01CDB7DEB7E6E00C94792DEEEE8E
:104FD000F4E0E491CE2FD0E00EEE14E0ECCFECED57
:104FE000F4E0E491CE2FD0E00CED14E0E4CFECEC53
:104FF000F4E0E491CE2FD0E00CEC14E0DCCFC9E07B
:10500000D0E004E015E0672B09F0B6CFD7CF80E100
:1050100089BD82E189BD09B400FEFDCF8091D80031
:105020008F7D8093D8008091E00082608093E000C3
:105030008091E00081FDFCCF0895AF92BF92CF92A6
:10504000DF92FF920F931F93CF93DF936C01EB01DD
:105050008A010E947C29F82E811123C001151105B7
:1050600039F0F80180819181C81BD90BC80ED91E77
:10507000B12CA12C2097A9F08091E80085FD22C0D9
:105080008091E8008E778093E80001151105A1F06A
:10509000F80180819181A80EB91EB182A08285E0BD
:1050A000F82E8F2DDF91CF911F910F91FF90DF9000
:1050B000CF90BF90AF9008950E947C298823D1F2B1
:1050C000F82EEFCFF60181916F018093F1002197C7
:1050D000FFEFAF1ABF0ACECFFC018091B6059091C9
:1050E000B70586179707A0F06115710529F490910F
:1050F000E8009E779093E80090E06115710551F407
:10510000911108C08091E80082FF34C080E00895CA
:10511000BC01F2CF8091AF058823C1F18530C1F188
:105120008091E80083FD30C08091E80082FDEACFE5
:105130008091E80080FFE1CF8091F3002091F200A0
:10514000382F6115710519F02830310558F091E0BC
:105150002830310509F090E02091E8002E77209367
:10516000E800CBCF81918093F100615071092F5FEE
:105170003F4FE7CF8091AF05882341F0853041F064
:105180008091E80083FFBECF81E0089582E008951A
:1051900083E00895FC018091B6059091B7058617CC
:1051A0009707A0F06115710529F48091E8008E77CA
:1051B0008093E80090E06115710551F4911108C0E9
:1051C0008091E80082FF35C080E00895BC01F2CFF5
:1051D0008091AF058823C9F18530C9F18091E8003D
:1051E00083FD31C08091E80082FDEACF8091E80024
:1051F00080FFE1CF8091F3002091F200382F6115FC
:10520000710519F02830310558F091E0283031054A
:1052100009F090E08091E8008E778093E800CBCF92
:1052200084918093F1003196615071092F5F3F4F57
:10523000E6CF8091AF05882341F0853041F0809121
:10524000E80083FFBDCF81E0089582E0089583E008
:105250000895982F973028F08F708093E90081E0AF
:1052600008959093E900242F762F50E0981731F09D
:105270007091EC002091ED005091F00021FD02C0F2
:105280009F5FE8CF3091EB003E7F3093EB00309191
:10529000ED003D7F3093ED003091EB0031603093B5
:1052A000EB007093EC002093ED005093F000209100
:1052B000EE0027FDE5CF80E008958091B00587FFDF
:1052C00013C08091E80082FF06C08091E8008B77D0
:1052D0008093E80004C08091AF058111F2CF08955A
:1052E0008091AF058823D9F38091E80080FFF8CF43
:1052F0008091E8008E77ECCF2091E4003091E500BA
:1053000095E6A9012091EC00822F817020FF06C054
:105310008091E80080FF06C080E008952091E800B9
:1053200022FD1AC08091AF05882389F0853089F06D
:105330008091EB0085FD0FC02091E4003091E500E5
:1053400042175307F9F29150E1F684E0089582E0A4
:10535000089583E0089581E008950E941C2A0E9428
:10536000242AE0EEF0E0808181608083E8EDF0E0C7
:1053700080818F77808319BCA7EDB0E08C918E7F00
:105380008C9380818F7E80831092AE0508950F9359
:105390001F93CF93DF930E941C2A0E94242AC8EDFA
:1053A000D0E088818F77888388818068888388812E
:1053B0008F7D888319BC1092AF051092AB051092B7
:1053C000AD051092AC0500EE10E0F80180818B7FF6
:1053D000808388818160888342E060E080E00E9471
:1053E0002929E1EEF0E080818E7F8083E2EEF0E01B
:1053F000808181608083808188608083F8018081E2
:105400008E7F8083888180618883DF91CF911F9117
:105410000F910895E8EDF0E080818F7E8083E7EDC5
:10542000F0E080818160808384E082BF81E08093AE
:10543000AE050E94C7290895E8EDF0E080818E7FD7
:1054400080831092E20008951092DA001092E10039
:1054500008951F920F920FB60F9211242F933F932E
:105460004F935F936F937F938F939F93AF93BF936C
:10547000EF93FF938091E10082FF0BC08091E200E7
:1054800082FF07C08091E1008B7F8093E1000E9442
:10549000882C8091DA0080FF19C08091D80080FFAD
:1054A00015C08091DA008E7F8093DA008091D90058
:1054B00080FF96C080E189BD82E189BD09B400FE0C
:1054C000FDCF81E08093AF050E945D268091E100D1
:1054D00080FF19C08091E20080FF15C08091E2003A
:1054E0008E7F8093E2008091E20080618093E200F1
:1054F0008091D80080628093D80019BC85E08093A9
:10550000AF050E9474268091E10084FF2BC080913A
:10551000E20084FF27C080E189BD82E189BD89B5B1
:10552000982F917080FFFBCF8091D8008F7D809362
:10553000D8008091E1008F7E8093E1008091E200AD
:105540008F7E8093E2008091E20081608093E20090
:105550008091AB05882309F449C084E08093AF05AE
:105560000E947D268091E10083FF29C08091E200A6
:1055700083FF25C08091E100877F8093E10082E076
:105580008093AF051092AB058091E1008E7F8093F0
:10559000E1008091E2008E7F8093E2008091E20042
:1055A00080618093E20042E060E080E00E9429296F
:1055B0008091F00088608093F0000E946E26FF9139
:1055C000EF91BF91AF919F918F917F916F915F917B
:1055D0004F913F912F910F900FBE0F901F901895F4
:1055E00019BC1092AF050E946B2670CF8091E3002A
:1055F00087FD93E09093AF05B3CF1F920F920FB644
:105600000F9211242F933F934F935F936F937F9348
:105610008F939F93AF93BF93CF93DF93EF93FF93BA
:10562000D091E900DF708091EC00C82FC17080FD3F
:10563000C0E81092E9008091F000877F8093F0002D
:1056400078940E94412B1092E9008091F0008860CC
:105650008093F000CD2BCF70C093E900FF91EF91C4
:10566000DF91CF91BF91AF919F918F917F916F917A
:105670005F914F913F912F910F900FBE0F901F9010
:105680001895AAE2B0E0E7E4FBE20C94602D80EB11
:1056900095E02091F100FC012193CF01F5E0883BDA
:1056A0009F07B9F70E9498268091E80083FF1EC1EA
:1056B0008091B0059091B1059A3008F017C1E92F9B
:1056C000F0E0EA50F14D0C941A2D803899F08238B0
:1056D00009F00CC18091B4058F70873008F006C1C5
:1056E0008093E9008091EB0085FB882780F9109278
:1056F000E90006C08091AC059091AD0591118260E2
:105700009091E800977F9093E8008093F1001092C9
:10571000F1008091E8008E77E5C0882309F4D3C0BA
:10572000823009F0E3C08091B2058111D6C080912A
:10573000B4058F702FEF280F263008F0D7C0809364
:10574000E9002091EB0020FFC8C0933031F4809134
:10575000EB0080628093EB00C0C09091EB00906101
:105760009093EB0021E030E001C0220F8A95EAF728
:105770002093EA001092EA008091EB008860EACF63
:105780008111B4C01091B2051F778091E300807839
:10579000812B8093E3008091E800877F8093E8006D
:1057A0000E945D298091E80080FFFCCF8091E3009A
:1057B00080688093E30082E0111183E08093AF055D
:1057C00095C08058823008F091C08091B2059091C8
:1057D000B3058C3D23E09207A1F583E08A838AE23A
:1057E00089834FB7F894DE01139620E03EE051E242
:1057F000E32FF0E050935700E49120FF03C0E295BF
:10580000EF703F5FEF708E2F90E0EA30C0F0C796E8
:105810008D939D932F5F243159F74FBF8091E800FE
:10582000877F8093E8006AE270E0CE0101960E94D3
:105830006C288091E8008B778093E80057C0C09671
:10584000E7CF6091B4057091B505AE014F5F5F4F32
:105850000E949927BC01892B09F448C09091E80067
:10586000977F9093E80089819A810E94CA28E1CFAE
:105870008038E1F58091E800877F8093E80080918F
:10588000AB058093F10045CF811130C09091B205F6
:10589000923060F58091E800877F8093E8009093D4
:1058A000AB050E945D298091AB05882311F084E04F
:1058B00005C08091E30087FDFACF81E08093AF05BA
:1058C0000E94882613C08091B205813079F481E06E
:1058D000933009F080E08093AD051092E90080914B
:1058E000E800877F8093E8000E945D298091E800AE
:1058F00083FF0AC08091E800877F8093E800809151
:10590000EB0080628093EB00AA96E3E00C947C2D80
:105910000895CF938091AF058823A1F0C091E9004D
:10592000CF709091EC00892F817090FD80E8C82B9A
:105930001092E9008091E80083FD0E94412BCF7016
:10594000C093E900CF9108950E94AD291092AF0550
:105950000895E8EDF0E08081806180838AE18A9596
:10596000F1F700C08091D90081700895991B79E00A
:1059700004C0991F961708F0961B881F7A95C9F7DF
:105980008095089587FB082E062687FD819567FD83
:1059900061950E94B62C0EF4919507FC81950895AF
:1059A000AA1BBB1B51E107C0AA1FBB1FA617B70745
:1059B00010F0A61BB70B881F991F5A95A9F7809561
:1059C0009095BC01CD01089597FB072E16F4009425
:1059D00007D077FD09D00E94D02C07FC05D03EF4FB
:1059E000909581959F4F0895709561957F4F08958B
:1059F000A1E21A2EAA1BBB1BFD010DC0AA1FBB1FD3
:105A0000EE1FFF1FA217B307E407F50720F0A21B44
:105A1000B30BE40BF50B661F771F881F991F1A94B1
:105A200069F760957095809590959B01AC01BD01DB
:105A3000CF010895EE0FFF1F0590F491E02D09941A
:105A40000E94282D332312F48A1B9B0B0C94392DB2
:105A5000A29FB001B39FC001A39F700D811D1124AF
:105A6000911DB29F700D811D1124911D08950E94FA
:105A7000282DB7FF0895821B930B08950E94282DAF
:105A8000A59F900DB49F900DA49F800D911D112492
:105A90000895B7FF0C943E2D0E943E2D821B930B60
:105AA00008952F923F924F925F926F927F928F92C2
:105AB0009F92AF92BF92CF92DF92EF92FF920F939D
:105AC0001F93CF93DF93CDB7DEB7CA1BDB0B0FB6A7
:105AD000F894DEBF0FBECDBF09942A883988488864
